:1000000024C048C047C096C524C644C043C042C0AF
:100010005AC540C03FC0AFC32FC53CC03BC005C59B
:1000200039C038C037C036C035C034C033C032C024
:1000300031C030C02FC02EC02DC0E7C301020480E4
:100040004020100804020108330611241FBECFEF20
:10005000D2E0DEBFCDBF11E0A0E0B1E0ECE7F5E11A
:1000600002C005900D92A231B107D9F721E0A2E1BB
:10007000B1E001C01D92AE3AB207E1F710E0C5E26F
:10008000D0E003C02197FE0171DAC432D107D1F765
:1000900017D672CAB5CFE091A901F091AA0190815B
:1000A000977F9083E091A901F091AA0190819F77B9
:1000B0009083E091A901F091AA01813091F48081AF
:1000C0008064808385B18093AD01E091AB01F091B4
:1000D000AC0180818B7F808381E08093A70180E0E9
:1000E000089580818F7BEDCFE82FF0E0E45CFF4F37
:1000F000E491823029F48091CA008F738093CA0002
:1001000086B3E82381E090E011F490E080E0089568
:10011000CF93DF93E82FF0E0E45CFF4FE49183306E
:1001200000F5823029F48091CA008F738093CA0051
:10013000C8E3D0E0A2E6B0E09E2F90952FB7611102
:100140000BC0F8948881892388838C9189238C93B0
:100150002FBFDF91CF910895F8948881E82BE88331
:10016000F4CF833029F48091CA008F7C8093CA0039
:10017000CBE3D0E0A3E6B0E0DFCFCF93DF9386FF01
:1001800004C08F739AE0981B892FE82FF0E0E45C9D
:10019000FF4FE4918B30E1F08330D0F08BE390E0BF
:1001A000AAE3B0E0C3E6D0E02E2F2095611117C07E
:1001B0004FB7F8943C9132233C93DC013C913223BD
:1001C0003C938881282328834FBFDF91CF910895E6
:1001D00088E390E0A7E3B0E0C2E6D0E0E5CF62308C
:1001E00069F44FB7F8943C9123232C93DC012C91B4
:1001F0002E2B2C938881E82BE883E6CF9FB7F894C9
:100200008881282328838C91E82BEC939FBFDDCF36
:100210003FB7F8948091200190912101A091220193
:10022000B091230122B708B600FE05C02F3F19F098
:100230000196A11DB11D3FBFBA2FA92F982F882766
:10024000BC01CD01620F711D811D911D43E0660F40
:10025000771F881F991F4A95D1F708950F931F9311
:10026000CF93DF93DC011C96ED91FC91DF01AA5B3B
:10027000BF4F2D913C9111972034310528F50D91F8
:100280001C911197CD91DC9120E430E0201B310BC3
:100290004217530708F49A01DB01EC0FFD1FB90167
:1002A0006E0F7F1FE617F70719F04D914193FACFB4
:1002B000DC011C96ED91FC91EA5BFF4F80819181FE
:1002C000280F391F31832083DF91CF911F910F9128
:1002D0000895FC0184859585FC01EA5BFF4F208130
:1002E00031812034310570F420813181A9014F5FC3
:1002F0005F4F51834083820F931FFC01608381E035
:1003000090E0089590E080E008950895FC018485D0
:100310009585FC01E05CFF4F40815181DC01AE5BC3
:10032000BF4F2D913C914217530740F420813181FA
:10033000820F931FFC01808190E008958FEF9FEF63
:10034000089580913501843548F48091350190E01D
:100350006DE073E0FAD880959095089585E797E66B
:10036000089528B1909124019295990F907E2F7154
:10037000922B98B999B1907C8F73982B99B92E9A3A
:100380002E99FECF66B177B1072E000C880B990B22
:10039000BDD729E03FEB45E15DE36CD80895CF92EE
:1003A000DF92EF92FF9280911201833071F18530DC
:1003B00009F446C08130D1F483E490E0D2DF6B01D0
:1003C0007C0171D760932801072E000C880B990BD4
:1003D0009DD79B01AC01C701B60194D620E030E067
:1003E00048EC52E447D85FD760932901E0911201AD
:1003F0000E2E000CFF0BE95DFE4F60818EE891E050
:10040000FF90EF90DF90CF9064CF85E490E0A9DF7C
:100410006B017C0148D760932A01072E000C880BE2
:10042000990B74D79B01AC01C701B6016BD620E0D4
:1004300030E048EC52E41ED836D760932B01D6CF7B
:1004400087E490E08EDF6B017C012DD760932C0157
:10045000072E000C880B990B59D79B01AC01C701E3
:10046000B60150D620E030E048EC52E403D81BD768
:1004700060932D01BBCF80B58D7F80BD61E081E0B1
:100480007CDE61E081E044DE80B5826080BD08955D
:1004900081E08093260180910001813031F461E098
:1004A00089E036DE61E08AE033CE8091340161E09C
:1004B000813009F060E089E02BDE60E0F4CF8AB1A2
:1004C00085FB882780F991E089278093000190912E
:1004D000000181E0911101C080E080932E018091A4
:1004E00026018111D5CF08951092260160E089E0A0
:1004F0000FDE61E08AE00CCE1FBC1EBC8EB58460AE
:100500008EBD8EB581608EBD709A1BDF9DBD8CBD8A
:10051000789A08958F929F92AF92BF92CF92DF9276
:10052000EF92FF920F931F93CF93DF9378982F98BA
:1005300085B7877E806185BFF89481B5806481BD71
:100540008091320198E08A3010F49091320121B507
:10055000892F880F880F8072977F892B822B81BD0E
:10056000789485B7806285BF789481E08093130189
:10057000889580911301882309F458C07CDF7BDFC4
:100580007ADF79DF80B58D7F80BD60E081E0C0DDFE
:1005900060E081E0F2DD80B5826080BD80912F0156
:1005A000813029F0809133018F3F09F03FC0809165
:1005B00036018F3FD9F12F9A83E490E0D2DE6B01B0
:1005C000D82FC92F85E490E0CCDE4B015C0187E495
:1005D00090E0C7DE7B018C012F989401A501B60144
:1005E0008D2F9C2F43D718161CF06401DA2DCB2DCC
:1005F0009701A801B6018D2F9C2F38D718161CF42F
:1006000076010D2F1C2F6091360170E090E080E0A4
:100610007BD620E030E040E251E4DDD59B01AC0127
:10062000B701C80123D787FF1092130180911301EE
:1006300081119ECFF89485B78F7D85BF11BC2F9A0D
:100640005BDF789462E084E098DD62E086E095DD2F
:10065000109225011092180181E080931A0118DF91
:1006600070DE9DBD8CBDDF91CF911F910F91FF90EA
:10067000EF90DF90CF90BF90AF909F908F900895B4
:10068000FC0184859585FC01E05CFF4F4081518130
:10069000DC01AE5BBF4F2D913C914217530768F4CC
:1006A00020813181A9014F5F5F4F51834083820FC9
:1006B000931FFC01808190E008958FEF9FEF0895D4
:1006C000FC0124853585F901EE5BFF4F8081918126
:1006D000205C3F4FF90120813181821B930B0895EB
:1006E000662351F08EE891E0EBDF892B29F08EE84C
:1006F00091E0C6DF8093120181E008951F93CF93AC
:10070000DF93EC01162FE8D4181731F0612FCE01DA
:10071000DF91CF911F91E8C4DF91CF911F91089590
:10072000CF93DF938EE891E0CBDF892B09F18EE840
:1007300091E0A6DF809312018EE891E0C1DF892B62
:10074000B9F08EE891E09CDFC09112010C2E000CF4
:10075000DD0BFE01E95DFE4F8083C930D10544F019
:10076000682FCE01CBDF2D9719F4DF91CF9190CE7A
:10077000DF91CF9108951F920F920FB60F9211241F
:100780002F933F938F939F93AF93BF9380911C01BF
:1007900090911D01A0911E01B0911F0130911B018C
:1007A00026E0230F2D3768F129E8230F0396A11DBA
:1007B000B11D20931B0180931C0190931D01A093F8
:1007C0001E01B0931F018091200190912101A09101
:1007D0002201B09123010196A11DB11D809320013A
:1007E00090932101A0932201B0932301BF91AF9177
:1007F0009F918F913F912F910F900FBE0F901F905F
:1008000018950296A11DB11DD4CF1F920F920FB65D
:100810000F9211242F933F934F935F936F937F9386
:100820008F939F93AF93BF93CF93EF93FF93C09119
:10083000A3008C2F8C7019F18FEF8093830180912E
:100840008401909185019F77909385018093840125
:100850008091A300846C8093A300FF91EF91CF91CE
:10086000BF91AF919F918F917F916F915F914F91C8
:100870003F912F910F900FBE0F901F901895C6FDBE
:1008800028C0809184019091850197FD22C0C7FF07
:100890006FC0C1FFAFC020917F0130918001809176
:1008A0008101909182012817390708F0A1C0809139
:1008B0007F01909180019C012F5F3F4F3093800119
:1008C00020937F01855C9E4FFC0180818093A00076
:1008D0004FC0C0FF66C0809184019091850197FF51
:1008E00029C080918401909185012091A000969566
:1008F000982F88279795879588279370822B9093B8
:10090000850180938401E0918601F0918701309701
:1009100089F110927C0110927B016091830180919A
:100920008401909185010995811124C087E080930D
:10093000A40093CF8091A00090E0909385018093D4
:100940008401809183018F5F809383018091840172
:1009500090918501897F9927803F9105A1F680912B
:100960008401909185019068909385018093840122
:1009700083E0DDCFC1FF10C010928201109281018F
:10098000E0918A01F0918B01309709F0099510925E
:10099000800110927F01ECCF10927E0110927D01B8
:1009A000E7CFC1FF15C0E0918C01F0918D01309728
:1009B00009F009958FEF80938301809184019091D4
:1009C00085019F77909385018093840180E443CFD4
:1009D000E0918801F0918901309761F310927C01D8
:1009E00010927B0180917D0190917E010995E2CF6B
:1009F00082E09DCF80917D0190917E0180349105B0
:100A000090F480917D0190917E019C012F5F3F4F7A
:100A100030937E0120937D012091A000855C9E4F44
:100A2000FC012083A5CF86E082CF1F920F920FB6E4
:100A30000F9211242F933F934F935F936F937F9364
:100A40008F939F93AF93BF93EF93FF93E0919C019C
:100A5000F0919D010995FF91EF91BF91AF919F9109
:100A60008F917F916F915F914F913F912F910F9057
:100A70000FBE0F901F9018951F920F920FB60F92F6
:100A800011242F933F934F935F936F937F938F9393
:100A90009F93AF93BF93EF93FF93E091A501F091E4
:100AA000A6010995FF91EF91BF91AF919F918F9111
:100AB0007F916F915F914F913F912F910F900FBE5A
:100AC0000F901F9018951F920F920FB60F9211243E
:100AD0002F933F934F935F936F937F938F939F9346
:100AE000AF93BF93EF93FF932CDC9DBD8CBD8091A2
:100AF0001A01882341F082E0F7DA892B21F481E0A2
:100B000080931901F1DC80911801882311F0ECDC4D
:100B100001DDFF91EF91BF91AF919F918F917F91F7
:100B20006F915F914F913F912F910F900FBE0F905A
:100B30001F9018951F920F920FB60F921124CF920B
:100B4000DF92EF92FF922F933F934F935F936F93B8
:100B50007F938F939F93AF93BF93CF93DF93EF9345
:100B6000FF93C0901401D0901501E0901601F09011
:100B700017014EDB609314017093150180931601E9
:100B8000909317018091140190911501A091160185
:100B9000B09117018C199D09AE09BF090A97A105EB
:100BA000B10548F010921301809119018823D1F00A
:100BB00010921901AFDCFF91EF91DF91CF91BF91BE
:100BC000AF919F918F917F916F915F914F913F91E5
:100BD0002F91FF90EF90DF90CF900F900FBE0F906E
:100BE0001F90189582E080DA892B81F580911A0197
:100BF00081110CC0CCB5DDB5A4DBC81BD90BC9383D
:100C0000D34120F081E080931A0142DC9ADB9DBD44
:100C10008CBD81E069DA019749F480912501811149
:100C200002C010922F0181E080932501809125015F
:100C3000882309F280E058DA892B09F0BCCF81E0E3
:100C4000809318017EDB9DBD8CBDB5CF10921A013B
:100C5000E0CF1F920F920FB60F9211240F900FBE8C
:100C60000F901F901895EEE8F1E01382128288EE43
:100C700093E0A0E0B0E084839583A683B78385E00A
:100C800091E0918380838BE391E095878487E5EA07
:100C9000F1E0128213828AE290E0958384838BE2F2
:100CA00090E097838683ECE9F1E0128213828CE274
:100CB00090E0958384838DE290E097838683089506
:100CC000789480B7836080BF83B7877F83BF83B703
:100CD000887F836083BF89B7816089BF8091C900A5
:100CE000887F8093C9008091CA008C7F8160809347
:100CF000CA008091C900877E8093C9008091C90095
:100D0000887F83608093C9008EB5887F8EBD8FB544
:100D10008C7F81608FBD8EB5877E8EBD8EB5887FBE
:100D200083608EBD80E18093670084EA80936800D1
:100D30008CEF8093660085B1887F866085B92F9A95
:100D400061E08AE0E5D962E082E017DA61E08AE0FA
:100D500014DA61E089E011DA60E081E00EDA60E047
:100D600080E00BDA60E083E408DA60E085E405DA2D
:100D700060E087E402DA62E084E0FFD962E086E0C6
:100D8000FCD9B2DB82E08093240185E780932701C0
:100D9000109228011092290110922A0110922B0121
:100DA00010922C0110922D0181E080932E0110925F
:100DB0002F0189E2809330011092310188E0809305
:100DC00032018FEF809333011092340192E39093BC
:100DD0003501809336016AE590E080E08FDC65E6BE
:100DE00081E090E08BDC62E782E090E087DC6FE6F8
:100DF00083E090E083DC62E384E090E07FDC67E402
:100E000085E090E07BDC6FE686E090E077DC60E0F8
:100E100087E090E073DC60E088E090E06FDCC9E0A0
:100E2000D0E0CE0159D1FE01E95DFE4F8F3F09F0C0
:100E30004CC16081CE0162DC2196C031D10589F7B9
:100E400080913001883008F442C1809130018837A8
:100E500008F03DC18091300120919A0130919B01B1
:100E6000880F8093A2001092A100F901E85BFF4F68
:100E70008FEF80838CEB8093A500339680E793E01F
:100E800091838083329680E993E091838083215B14
:100E90003F4F8FEC91E0F90191838083F89480E2D9
:100EA0008BBF87E080BD12BA1FBC1EBC25DB8091C2
:100EB000A701811102C081E0EED88091A8018823AA
:100EC00051F08FB78F778FBFE091A901F091AA0100
:100ED0008081877F80838091A701811101C0DBD849
:100EE0008FE592E09093A6018093A501E091A9017E
:100EF000F091AA0180818C7F8083E091A901F0911B
:100F0000AA018081886080838FB780688FBF81E06D
:100F10008093A801D4DA789480913101813009F06E
:100F2000D9C0B6DABB24B39473D9009137011091BC
:100F300038012091390130913A0160177107820719
:100F40009307A8F0009137011091380120913901E1
:100F500030913A016B017C01C01AD10AE20AF30A0E
:100F600097018601003412442F403105E8F2609366
:100F70003701709338018093390190933A0183E4EB
:100F800090E0EFD98B01D82FC92F8DD16093280124
:100F9000072E000C880B990BB9D19B01AC01B8014D
:100FA0008D2F9C2FAFD020E030E048EC52E462D28D
:100FB0007AD16093290185E490E0D3D9762E872EEB
:100FC000982EA92E70D160932A01072E000C880B51
:100FD000990B9CD19B01AC01672D782D892D9A2D01
:100FE00091D020E030E048EC52E444D25CD16093F0
:100FF0002B0187E490E0B5D96B017C0154D160935B
:101000002C01072E000C880B990B80D19B01AC01A1
:10101000B601C70177D020E030E048EC52E42AD294
:1010200042D160932D0180912601882309F47CCF61
:1010300080912501882309F477CF80912F018111B8
:1010400073CF809133018F3F09F46ECF272D382D58
:10105000492D5A2DB8018D2F9C2F08D2181624F037
:10106000072D182DD92DCA2D98014D2F5C2FB601B3
:10107000C701ADD087FF03C06801ED2EFC2E609143
:10108000330170E090E080E03FD120E030E040E2CA
:1010900051E4A1D09601A701E9D118160CF044CF74
:1010A000B0922F0180B58B7F80BD61E082E065D872
:1010B00061E082E02DD860E082E02AD862E082E040
:1010C0005CD880B5846080BD2FCF8083B5CE89E2A7
:1010D00090E0C2CE1FDA26CFE199FECF9FBB8EBB38
:1010E000E09A99278DB30895262FE199FECF1CBA77
:1010F0009FBB8EBB2DBB0FB6F894E29AE19A0FBE50
:10110000019608955058BB27AA270ED075C166D105
:1011100030F06BD120F031F49F3F11F41EF45BC12D
:101120000EF4E095E7FB51C1E92F77D180F3BA17B0
:10113000620773078407950718F071F49EF58FC155
:101140000EF4E0950B2EBA2FA02D0B01B9019001E2
:101150000C01CA01A0011124FF27591B99F0593F26
:1011600050F4503E68F11A16F040A22F232F342F6E
:101170004427585FF3CF469537952795A795F040BC
:101180005395C9F77EF41F16BA0B620B730B840BD1
:10119000BAF09150A1F0FF0FBB1F661F771F881F89
:1011A000C2F70EC0BA0F621F731F841F48F48795E1
:1011B00077956795B795F7959E3F08F0B3CF9395D0
:1011C000880F08F09927EE0F979587950895D9D045
:1011D00008F481E008950CD00FC107D140F0FED093
:1011E00030F021F45F3F19F0F0C0511139C1F3C064
:1011F00014D198F39923C9F35523B1F3951B550BDB
:10120000BB27AA2762177307840738F09F5F5F4FD9
:10121000220F331F441FAA1FA9F333D00E2E3AF01A
:10122000E0E830D091505040E695001CCAF729D034
:10123000FE2F27D0660F771F881FBB1F2617370783
:101240004807AB07B0E809F0BB0B802DBF01FF27B3
:1012500093585F4F2AF09E3F510568F0B6C000C119
:101260005F3FECF3983EDCF3869577956795B795ED
:10127000F7959F5FC9F7880F911D9695879597F908
:101280000895E1E0660F771F881FBB1F6217730781
:101290008407BA0720F0621B730B840BBA0BEE1F96
:1012A00088F7E095089504D06894B111D9C00895E5
:1012B000BCD088F09F5790F0B92F9927B751A0F074
:1012C000D1F0660F771F881F991F1AF0BA95C9F7DA
:1012D00012C0B13081F0C3D0B1E00895C0C0672F13
:1012E000782F8827B85F39F0B93FCCF3869577958A
:1012F0006795B395D9F73EF4909580957095619573
:101300007F4F8F4F9F4F0895E89409C097FB3EF49D
:1013100090958095709561957F4F8F4F9F4F992342
:10132000A9F0F92F96E9BB279395F69587957795C0
:101330006795B795F111F8CFFAF4BB0F11F460FF80
:101340001BC06F5F7F4F8F4F9F4F16C0882311F0D8
:1013500096E911C0772321F09EE8872F762F05C0EC
:10136000662371F096E8862F70E060E02AF09A9587
:10137000660F771F881FDAF7880F9695879597F97C
:101380000895990F0008550FAA0BE0E8FEEF161616
:101390001706E807F907C0F012161306E407F50769
:1013A00098F0621B730B840B950B39F40A2661F0DD
:1013B000232B242B252B21F408950A2609F4A14080
:1013C000A6958FEF811D811D089597F99F6780E88D
:1013D00070E060E008959FEF80EC089500240A9487
:1013E0001616170618060906089500240A94121600
:1013F0001306140605060895092E0394000C11F433
:10140000882352F0BB0F40F4BF2B11F460FF04C0DF
:101410006F5F7F4F8F4F9F4F089557FD9058440F38
:10142000551F59F05F3F71F04795880F97FB991F43
:1014300061F09F3F79F08795089512161306140600
:10144000551FF2CF4695F1DF08C01616170618068D
:10145000991FF1CF86957105610508940895E89468
:10146000BB2766277727CB0197F908958ADF08F411
:101470008FEF08950AD0C0CFB1DF28F0B6DF18F0A3
:10148000952309F0A2CFA7CFEBCFC7DFA8F399230D
:10149000D9F35523C9F3950F50E0551FAA27EE271E
:1014A000FF27BB2700240894679520F4E20FF31F61
:1014B000B41F0A1E220F331F441FAA1F6695A9F7E7
:1014C000779530F4F30FB41F0A1E121E08F46395CB
:1014D000330F441FAA1F221F769599F7879520F492
:1014E000B40F0A1E121E631F440FAA1F221F331FB0
:1014F0008695A9F7862F712D602D11249F57504096
:101500008AF0E1F088234AF0EE0FFF1FBB1F661F31
:10151000771F881F91505040A9F79E3F510570F0EA
:1015200054CF9ECF5F3FECF3983EDCF386957795E2
:101530006795B795F795E7959F5FC1F7FE2B880FE5
:10154000911D9695879597F908950024552704C015
:10155000080E591F880F991F009729F076956795F7
:10156000B8F37105B9F7802D952F0895EE0FFF1F81
:0C1570000590F491E02D0994F894FFCF51
:10157C00010000000069012E016003400386018513
:02158C0001005C
:00000001FF
